{
    "contractName": "ShitCoin",
    "abi": [
        {
            "inputs": [],
            "stateMutability": "nonpayable",
            "type": "constructor"
        },
        {
            "anonymous": false,
            "inputs": [
                {
                    "indexed": true,
                    "internalType": "address",
                    "name": "owner",
                    "type": "address"
                },
                {
                    "indexed": true,
                    "internalType": "address",
                    "name": "spender",
                    "type": "address"
                },
                {
                    "indexed": false,
                    "internalType": "uint256",
                    "name": "value",
                    "type": "uint256"
                }
            ],
            "name": "Approval",
            "type": "event"
        },
        {
            "anonymous": false,
            "inputs": [
                {
                    "indexed": false,
                    "internalType": "address",
                    "name": "account",
                    "type": "address"
                }
            ],
            "name": "Paused",
            "type": "event"
        },
        {
            "anonymous": false,
            "inputs": [
                {
                    "indexed": true,
                    "internalType": "bytes32",
                    "name": "role",
                    "type": "bytes32"
                },
                {
                    "indexed": true,
                    "internalType": "bytes32",
                    "name": "previousAdminRole",
                    "type": "bytes32"
                },
                {
                    "indexed": true,
                    "internalType": "bytes32",
                    "name": "newAdminRole",
                    "type": "bytes32"
                }
            ],
            "name": "RoleAdminChanged",
            "type": "event"
        },
        {
            "anonymous": false,
            "inputs": [
                {
                    "indexed": true,
                    "internalType": "bytes32",
                    "name": "role",
                    "type": "bytes32"
                },
                {
                    "indexed": true,
                    "internalType": "address",
                    "name": "account",
                    "type": "address"
                },
                {
                    "indexed": true,
                    "internalType": "address",
                    "name": "sender",
                    "type": "address"
                }
            ],
            "name": "RoleGranted",
            "type": "event"
        },
        {
            "anonymous": false,
            "inputs": [
                {
                    "indexed": true,
                    "internalType": "bytes32",
                    "name": "role",
                    "type": "bytes32"
                },
                {
                    "indexed": true,
                    "internalType": "address",
                    "name": "account",
                    "type": "address"
                },
                {
                    "indexed": true,
                    "internalType": "address",
                    "name": "sender",
                    "type": "address"
                }
            ],
            "name": "RoleRevoked",
            "type": "event"
        },
        {
            "anonymous": false,
            "inputs": [
                {
                    "indexed": true,
                    "internalType": "address",
                    "name": "from",
                    "type": "address"
                },
                {
                    "indexed": true,
                    "internalType": "address",
                    "name": "to",
                    "type": "address"
                },
                {
                    "indexed": false,
                    "internalType": "uint256",
                    "name": "value",
                    "type": "uint256"
                }
            ],
            "name": "Transfer",
            "type": "event"
        },
        {
            "anonymous": false,
            "inputs": [
                {
                    "indexed": false,
                    "internalType": "address",
                    "name": "account",
                    "type": "address"
                }
            ],
            "name": "Unpaused",
            "type": "event"
        },
        {
            "inputs": [],
            "name": "BURNER_ROLE",
            "outputs": [
                {
                    "internalType": "bytes32",
                    "name": "",
                    "type": "bytes32"
                }
            ],
            "stateMutability": "view",
            "type": "function"
        },
        {
            "inputs": [],
            "name": "DEFAULT_ADMIN_ROLE",
            "outputs": [
                {
                    "internalType": "bytes32",
                    "name": "",
                    "type": "bytes32"
                }
            ],
            "stateMutability": "view",
            "type": "function"
        },
        {
            "inputs": [],
            "name": "MINTER_ROLE",
            "outputs": [
                {
                    "internalType": "bytes32",
                    "name": "",
                    "type": "bytes32"
                }
            ],
            "stateMutability": "view",
            "type": "function"
        },
        {
            "inputs": [],
            "name": "PAUSER_ROLE",
            "outputs": [
                {
                    "internalType": "bytes32",
                    "name": "",
                    "type": "bytes32"
                }
            ],
            "stateMutability": "view",
            "type": "function"
        },
        {
            "inputs": [
                {
                    "internalType": "address",
                    "name": "owner",
                    "type": "address"
                },
                {
                    "internalType": "address",
                    "name": "spender",
                    "type": "address"
                }
            ],
            "name": "allowance",
            "outputs": [
                {
                    "internalType": "uint256",
                    "name": "",
                    "type": "uint256"
                }
            ],
            "stateMutability": "view",
            "type": "function"
        },
        {
            "inputs": [
                {
                    "internalType": "address",
                    "name": "spender",
                    "type": "address"
                },
                {
                    "internalType": "uint256",
                    "name": "amount",
                    "type": "uint256"
                }
            ],
            "name": "approve",
            "outputs": [
                {
                    "internalType": "bool",
                    "name": "",
                    "type": "bool"
                }
            ],
            "stateMutability": "nonpayable",
            "type": "function"
        },
        {
            "inputs": [
                {
                    "internalType": "address",
                    "name": "account",
                    "type": "address"
                }
            ],
            "name": "balanceOf",
            "outputs": [
                {
                    "internalType": "uint256",
                    "name": "",
                    "type": "uint256"
                }
            ],
            "stateMutability": "view",
            "type": "function"
        },
        {
            "inputs": [
                {
                    "internalType": "uint256",
                    "name": "amount",
                    "type": "uint256"
                }
            ],
            "name": "burn",
            "outputs": [],
            "stateMutability": "nonpayable",
            "type": "function"
        },
        {
            "inputs": [
                {
                    "internalType": "address",
                    "name": "from",
                    "type": "address"
                },
                {
                    "internalType": "uint256",
                    "name": "amount",
                    "type": "uint256"
                }
            ],
            "name": "burn",
            "outputs": [],
            "stateMutability": "nonpayable",
            "type": "function"
        },
        {
            "inputs": [
                {
                    "internalType": "address",
                    "name": "account",
                    "type": "address"
                },
                {
                    "internalType": "uint256",
                    "name": "amount",
                    "type": "uint256"
                }
            ],
            "name": "burnFrom",
            "outputs": [],
            "stateMutability": "nonpayable",
            "type": "function"
        },
        {
            "inputs": [],
            "name": "decimals",
            "outputs": [
                {
                    "internalType": "uint8",
                    "name": "",
                    "type": "uint8"
                }
            ],
            "stateMutability": "view",
            "type": "function"
        },
        {
            "inputs": [
                {
                    "internalType": "address",
                    "name": "spender",
                    "type": "address"
                },
                {
                    "internalType": "uint256",
                    "name": "subtractedValue",
                    "type": "uint256"
                }
            ],
            "name": "decreaseAllowance",
            "outputs": [
                {
                    "internalType": "bool",
                    "name": "",
                    "type": "bool"
                }
            ],
            "stateMutability": "nonpayable",
            "type": "function"
        },
        {
            "inputs": [
                {
                    "internalType": "bytes32",
                    "name": "role",
                    "type": "bytes32"
                }
            ],
            "name": "getRoleAdmin",
            "outputs": [
                {
                    "internalType": "bytes32",
                    "name": "",
                    "type": "bytes32"
                }
            ],
            "stateMutability": "view",
            "type": "function"
        },
        {
            "inputs": [
                {
                    "internalType": "bytes32",
                    "name": "role",
                    "type": "bytes32"
                },
                {
                    "internalType": "uint256",
                    "name": "index",
                    "type": "uint256"
                }
            ],
            "name": "getRoleMember",
            "outputs": [
                {
                    "internalType": "address",
                    "name": "",
                    "type": "address"
                }
            ],
            "stateMutability": "view",
            "type": "function"
        },
        {
            "inputs": [
                {
                    "internalType": "bytes32",
                    "name": "role",
                    "type": "bytes32"
                }
            ],
            "name": "getRoleMemberCount",
            "outputs": [
                {
                    "internalType": "uint256",
                    "name": "",
                    "type": "uint256"
                }
            ],
            "stateMutability": "view",
            "type": "function"
        },
        {
            "inputs": [
                {
                    "internalType": "bytes32",
                    "name": "role",
                    "type": "bytes32"
                },
                {
                    "internalType": "address",
                    "name": "account",
                    "type": "address"
                }
            ],
            "name": "grantRole",
            "outputs": [],
            "stateMutability": "nonpayable",
            "type": "function"
        },
        {
            "inputs": [
                {
                    "internalType": "bytes32",
                    "name": "role",
                    "type": "bytes32"
                },
                {
                    "internalType": "address",
                    "name": "account",
                    "type": "address"
                }
            ],
            "name": "hasRole",
            "outputs": [
                {
                    "internalType": "bool",
                    "name": "",
                    "type": "bool"
                }
            ],
            "stateMutability": "view",
            "type": "function"
        },
        {
            "inputs": [
                {
                    "internalType": "address",
                    "name": "spender",
                    "type": "address"
                },
                {
                    "internalType": "uint256",
                    "name": "addedValue",
                    "type": "uint256"
                }
            ],
            "name": "increaseAllowance",
            "outputs": [
                {
                    "internalType": "bool",
                    "name": "",
                    "type": "bool"
                }
            ],
            "stateMutability": "nonpayable",
            "type": "function"
        },
        {
            "inputs": [
                {
                    "internalType": "address",
                    "name": "to",
                    "type": "address"
                },
                {
                    "internalType": "uint256",
                    "name": "amount",
                    "type": "uint256"
                }
            ],
            "name": "mint",
            "outputs": [],
            "stateMutability": "nonpayable",
            "type": "function"
        },
        {
            "inputs": [],
            "name": "name",
            "outputs": [
                {
                    "internalType": "string",
                    "name": "",
                    "type": "string"
                }
            ],
            "stateMutability": "view",
            "type": "function"
        },
        {
            "inputs": [],
            "name": "pause",
            "outputs": [],
            "stateMutability": "nonpayable",
            "type": "function"
        },
        {
            "inputs": [],
            "name": "paused",
            "outputs": [
                {
                    "internalType": "bool",
                    "name": "",
                    "type": "bool"
                }
            ],
            "stateMutability": "view",
            "type": "function"
        },
        {
            "inputs": [
                {
                    "internalType": "bytes32",
                    "name": "role",
                    "type": "bytes32"
                },
                {
                    "internalType": "address",
                    "name": "account",
                    "type": "address"
                }
            ],
            "name": "renounceRole",
            "outputs": [],
            "stateMutability": "nonpayable",
            "type": "function"
        },
        {
            "inputs": [
                {
                    "internalType": "bytes32",
                    "name": "role",
                    "type": "bytes32"
                },
                {
                    "internalType": "address",
                    "name": "account",
                    "type": "address"
                }
            ],
            "name": "revokeRole",
            "outputs": [],
            "stateMutability": "nonpayable",
            "type": "function"
        },
        {
            "inputs": [
                {
                    "internalType": "bytes4",
                    "name": "interfaceId",
                    "type": "bytes4"
                }
            ],
            "name": "supportsInterface",
            "outputs": [
                {
                    "internalType": "bool",
                    "name": "",
                    "type": "bool"
                }
            ],
            "stateMutability": "view",
            "type": "function"
        },
        {
            "inputs": [],
            "name": "symbol",
            "outputs": [
                {
                    "internalType": "string",
                    "name": "",
                    "type": "string"
                }
            ],
            "stateMutability": "view",
            "type": "function"
        },
        {
            "inputs": [],
            "name": "totalSupply",
            "outputs": [
                {
                    "internalType": "uint256",
                    "name": "",
                    "type": "uint256"
                }
            ],
            "stateMutability": "view",
            "type": "function"
        },
        {
            "inputs": [
                {
                    "internalType": "address",
                    "name": "recipient",
                    "type": "address"
                },
                {
                    "internalType": "uint256",
                    "name": "amount",
                    "type": "uint256"
                }
            ],
            "name": "transfer",
            "outputs": [
                {
                    "internalType": "bool",
                    "name": "",
                    "type": "bool"
                }
            ],
            "stateMutability": "nonpayable",
            "type": "function"
        },
        {
            "inputs": [
                {
                    "internalType": "address",
                    "name": "sender",
                    "type": "address"
                },
                {
                    "internalType": "address",
                    "name": "recipient",
                    "type": "address"
                },
                {
                    "internalType": "uint256",
                    "name": "amount",
                    "type": "uint256"
                }
            ],
            "name": "transferFrom",
            "outputs": [
                {
                    "internalType": "bool",
                    "name": "",
                    "type": "bool"
                }
            ],
            "stateMutability": "nonpayable",
            "type": "function"
        },
        {
            "inputs": [],
            "name": "unpause",
            "outputs": [],
            "stateMutability": "nonpayable",
            "type": "function"
        }
    ],
    "bytecode": "60806040523480156200001157600080fd5b506040518060400160405280600881526020016729b434ba21b7b4b760c11b8152506040518060400160405280600481526020016314d2125560e21b81525081600490805190602001906200006892919062000287565b5080516200007e90600590602084019062000287565b50506007805460ff19169055506200009860003362000122565b620000c47f9f2df0fed2c77648de5860a4cc508cd0818c85b8b8a1ab4ceeef8d981c8956a63362000122565b620000f07f3c11d16cbaffd01df69ce1c404f6340ee057498f5f00246190ea54220576a8483362000122565b6200011c7f65d7a28e3265b37a6474929f336521b332c1681b933f6cb9f3376673440d862a3362000122565b6200036a565b6200013982826200016560201b62000a981760201c565b60008281526006602090815260409091206200016091839062000aa262000175821b17901c565b505050565b62000171828262000195565b5050565b60006200018c836001600160a01b03841662000235565b90505b92915050565b6000828152602081815260408083206001600160a01b038516845290915290205460ff1662000171576000828152602081815260408083206001600160a01b03851684529091529020805460ff19166001179055620001f13390565b6001600160a01b0316816001600160a01b0316837f2f8788117e7eff1d82e926ec794901d17c78024a50270940304540a733656f0d60405160405180910390a45050565b60008181526001830160205260408120546200027e575081546001818101845560008481526020808220909301849055845484825282860190935260409020919091556200018f565b5060006200018f565b82805462000295906200032d565b90600052602060002090601f016020900481019282620002b9576000855562000304565b82601f10620002d457805160ff191683800117855562000304565b8280016001018555821562000304579182015b8281111562000304578251825591602001919060010190620002e7565b506200031292915062000316565b5090565b5b8082111562000312576000815560010162000317565b600181811c908216806200034257607f821691505b602082108114156200036457634e487b7160e01b600052602260045260246000fd5b50919050565b611af9806200037a6000396000f3fe608060405234801561001057600080fd5b50600436106101da5760003560e01c806370a0823111610104578063a217fddf116100a2578063d539139311610071578063d5391393146103ff578063d547741f14610426578063dd62ed3e14610439578063e63ab1e91461047257600080fd5b8063a217fddf146103be578063a457c2d7146103c6578063a9059cbb146103d9578063ca15c873146103ec57600080fd5b80639010d07c116100de5780639010d07c1461036557806391d148541461039057806395d89b41146103a35780639dc29fac146103ab57600080fd5b806370a082311461032157806379cc67901461034a5780638456cb591461035d57600080fd5b80632f2ff15d1161017c5780633f4ba83a1161014b5780633f4ba83a146102e857806340c10f19146102f057806342966c68146103035780635c975abb1461031657600080fd5b80632f2ff15d1461029e578063313ce567146102b357806336568abe146102c257806339509351146102d557600080fd5b806318160ddd116101b857806318160ddd1461022f57806323b872dd14610241578063248a9ca314610254578063282c51f31461027757600080fd5b806301ffc9a7146101df57806306fdde0314610207578063095ea7b31461021c575b600080fd5b6101f26101ed36600461190d565b610499565b60405190151581526020015b60405180910390f35b61020f6104c4565b6040516101fe91906119aa565b6101f261022a366004611889565b610556565b6003545b6040519081526020016101fe565b6101f261024f36600461184e565b61056c565b6102336102623660046118b2565b60009081526020819052604090206001015490565b6102337f3c11d16cbaffd01df69ce1c404f6340ee057498f5f00246190ea54220576a84881565b6102b16102ac3660046118ca565b610622565b005b604051601281526020016101fe565b6102b16102d03660046118ca565b610649565b6101f26102e3366004611889565b61066b565b6102b16106a2565b6102b16102fe366004611889565b610735565b6102b16103113660046118b2565b6107c9565b60075460ff166101f2565b61023361032f366004611802565b6001600160a01b031660009081526001602052604090205490565b6102b1610358366004611889565b6107d6565b6102b1610859565b6103786103733660046118ec565b6108e8565b6040516001600160a01b0390911681526020016101fe565b6101f261039e3660046118ca565b610907565b61020f610930565b6102b16103b9366004611889565b61093f565b610233600081565b6101f26103d4366004611889565b6109cf565b6101f26103e7366004611889565b610a6a565b6102336103fa3660046118b2565b610a77565b6102337f9f2df0fed2c77648de5860a4cc508cd0818c85b8b8a1ab4ceeef8d981c8956a681565b6102b16104343660046118ca565b610a8e565b61023361044736600461181c565b6001600160a01b03918216600090815260026020908152604080832093909416825291909152205490565b6102337f65d7a28e3265b37a6474929f336521b332c1681b933f6cb9f3376673440d862a81565b60006001600160e01b03198216635a05180f60e01b14806104be57506104be82610ab7565b92915050565b6060600480546104d390611a72565b80601f01602080910402602001604051908101604052809291908181526020018280546104ff90611a72565b801561054c5780601f106105215761010080835404028352916020019161054c565b820191906000526020600020905b81548152906001019060200180831161052f57829003601f168201915b5050505050905090565b6000610563338484610aec565b50600192915050565b6000610579848484610c11565b6001600160a01b0384166000908152600260209081526040808320338452909152902054828110156106035760405162461bcd60e51b815260206004820152602860248201527f45524332303a207472616e7366657220616d6f756e74206578636565647320616044820152676c6c6f77616e636560c01b60648201526084015b60405180910390fd5b61061785336106128685611a14565b610aec565b506001949350505050565b61062c8282610df4565b60008281526006602052604090206106449082610aa2565b505050565b6106538282610e1a565b60008281526006602052604090206106449082610e94565b3360008181526002602090815260408083206001600160a01b038716845290915281205490916105639185906106129086906119dd565b6106cc7f65d7a28e3265b37a6474929f336521b332c1681b933f6cb9f3376673440d862a33610907565b61072b5760405162461bcd60e51b815260206004820152602a60248201527f53686974436f696e3a206d75737420686176652070617573657220726f6c6520604482015269746f20756e706175736560b01b60648201526084016105fa565b610733610ea9565b565b61075f7f9f2df0fed2c77648de5860a4cc508cd0818c85b8b8a1ab4ceeef8d981c8956a633610907565b6107bb5760405162461bcd60e51b815260206004820152602760248201527f53686974436f696e3a206d7573742068617665206d696e74657220726f6c65206044820152661d1bc81b5a5b9d60ca1b60648201526084016105fa565b6107c58282610f3c565b5050565b6107d33382611027565b50565b60006107e28333610447565b9050818110156108405760405162461bcd60e51b8152602060048201526024808201527f45524332303a206275726e20616d6f756e74206578636565647320616c6c6f77604482015263616e636560e01b60648201526084016105fa565b61084f83336106128585611a14565b6106448383611027565b6108837f65d7a28e3265b37a6474929f336521b332c1681b933f6cb9f3376673440d862a33610907565b6108e05760405162461bcd60e51b815260206004820152602860248201527f53686974436f696e3a206d75737420686176652070617573657220726f6c6520604482015267746f20706175736560c01b60648201526084016105fa565b610733611182565b600082815260066020526040812061090090836111fd565b9392505050565b6000918252602082815260408084206001600160a01b0393909316845291905290205460ff1690565b6060600580546104d390611a72565b6109697f3c11d16cbaffd01df69ce1c404f6340ee057498f5f00246190ea54220576a84833610907565b6109c55760405162461bcd60e51b815260206004820152602760248201527f53686974436f696e3a206d7573742068617665206275726e657220726f6c65206044820152663a3790313ab93760c91b60648201526084016105fa565b6107c58282611027565b3360009081526002602090815260408083206001600160a01b038616845290915281205482811015610a515760405162461bcd60e51b815260206004820152602560248201527f45524332303a2064656372656173656420616c6c6f77616e63652062656c6f77604482015264207a65726f60d81b60648201526084016105fa565b610a6033856106128685611a14565b5060019392505050565b6000610563338484610c11565b60008181526006602052604081206104be90611209565b6106538282611213565b6107c58282611239565b6000610900836001600160a01b0384166112bd565b60006001600160e01b03198216637965db0b60e01b14806104be57506301ffc9a760e01b6001600160e01b03198316146104be565b6001600160a01b038316610b4e5760405162461bcd60e51b8152602060048201526024808201527f45524332303a20617070726f76652066726f6d20746865207a65726f206164646044820152637265737360e01b60648201526084016105fa565b6001600160a01b038216610baf5760405162461bcd60e51b815260206004820152602260248201527f45524332303a20617070726f766520746f20746865207a65726f206164647265604482015261737360f01b60648201526084016105fa565b6001600160a01b0383811660008181526002602090815260408083209487168084529482529182902085905590518481527f8c5be1e5ebec7d5bd14f71427d1e84f3dd0314c0f7b2291e5b200ac8c7c3b92591015b60405180910390a3505050565b6001600160a01b038316610c755760405162461bcd60e51b815260206004820152602560248201527f45524332303a207472616e736665722066726f6d20746865207a65726f206164604482015264647265737360d81b60648201526084016105fa565b6001600160a01b038216610cd75760405162461bcd60e51b815260206004820152602360248201527f45524332303a207472616e7366657220746f20746865207a65726f206164647260448201526265737360e81b60648201526084016105fa565b610ce283838361130c565b6001600160a01b03831660009081526001602052604090205481811015610d5a5760405162461bcd60e51b815260206004820152602660248201527f45524332303a207472616e7366657220616d6f756e7420657863656564732062604482015265616c616e636560d01b60648201526084016105fa565b610d648282611a14565b6001600160a01b038086166000908152600160205260408082209390935590851681529081208054849290610d9a9084906119dd565b92505081905550826001600160a01b0316846001600160a01b03167fddf252ad1be2c89b69c2b068fc378daa952ba7f163c4a11628f55a4df523b3ef84604051610de691815260200190565b60405180910390a350505050565b600082815260208190526040902060010154610e10813361131f565b6106448383611239565b6001600160a01b0381163314610e8a5760405162461bcd60e51b815260206004820152602f60248201527f416363657373436f6e74726f6c3a2063616e206f6e6c792072656e6f756e636560448201526e103937b632b9903337b91039b2b63360891b60648201526084016105fa565b6107c58282611383565b6000610900836001600160a01b0384166113e8565b60075460ff16610ef25760405162461bcd60e51b815260206004820152601460248201527314185d5cd8589b194e881b9bdd081c185d5cd95960621b60448201526064016105fa565b6007805460ff191690557f5db9ee0a495bf2e6ff9c91a7834c1ba4fdd244a5e8aa4e537bd38aeae4b073aa335b6040516001600160a01b03909116815260200160405180910390a1565b6001600160a01b038216610f925760405162461bcd60e51b815260206004820152601f60248201527f45524332303a206d696e7420746f20746865207a65726f20616464726573730060448201526064016105fa565b610f9e6000838361130c565b8060036000828254610fb091906119dd565b90915550506001600160a01b03821660009081526001602052604081208054839290610fdd9084906119dd565b90915550506040518181526001600160a01b038316906000907fddf252ad1be2c89b69c2b068fc378daa952ba7f163c4a11628f55a4df523b3ef9060200160405180910390a35050565b6001600160a01b0382166110875760405162461bcd60e51b815260206004820152602160248201527f45524332303a206275726e2066726f6d20746865207a65726f206164647265736044820152607360f81b60648201526084016105fa565b6110938260008361130c565b6001600160a01b038216600090815260016020526040902054818110156111075760405162461bcd60e51b815260206004820152602260248201527f45524332303a206275726e20616d6f756e7420657863656564732062616c616e604482015261636560f01b60648201526084016105fa565b6111118282611a14565b6001600160a01b0384166000908152600160205260408120919091556003805484929061113f908490611a14565b90915550506040518281526000906001600160a01b038516907fddf252ad1be2c89b69c2b068fc378daa952ba7f163c4a11628f55a4df523b3ef90602001610c04565b60075460ff16156111c85760405162461bcd60e51b815260206004820152601060248201526f14185d5cd8589b194e881c185d5cd95960821b60448201526064016105fa565b6007805460ff191660011790557f62e78cea01bee320cd4e420270b5ea74000d11b0c9f74754ebdbfc544b05a258610f1f3390565b600061090083836114ff565b60006104be825490565b60008281526020819052604090206001015461122f813361131f565b6106448383611383565b6112438282610907565b6107c5576000828152602081815260408083206001600160a01b03851684529091529020805460ff191660011790556112793390565b6001600160a01b0316816001600160a01b0316837f2f8788117e7eff1d82e926ec794901d17c78024a50270940304540a733656f0d60405160405180910390a45050565b6000818152600183016020526040812054611304575081546001818101845560008481526020808220909301849055845484825282860190935260409020919091556104be565b5060006104be565b611314611593565b61064483838361159e565b6113298282610907565b6107c557611341816001600160a01b03166014611604565b61134c836020611604565b60405160200161135d929190611935565b60408051601f198184030181529082905262461bcd60e51b82526105fa916004016119aa565b61138d8282610907565b156107c5576000828152602081815260408083206001600160a01b0385168085529252808320805460ff1916905551339285917ff6391f5c32d9c69d2a47ea670b442974b53935d1edc7fd64eb21e047a839171b9190a45050565b600081815260018301602052604081205480156114f557600061140c600183611a14565b855490915060009061142090600190611a14565b9050600086600001828154811061144757634e487b7160e01b600052603260045260246000fd5b906000526020600020015490508087600001848154811061147857634e487b7160e01b600052603260045260246000fd5b6000918252602080832090910192909255828152600189019091526040902084905586548790806114b957634e487b7160e01b600052603160045260246000fd5b600190038181906000526020600020016000905590558660010160008781526020019081526020016000206000905560019450505050506104be565b60009150506104be565b8154600090821061155d5760405162461bcd60e51b815260206004820152602260248201527f456e756d657261626c655365743a20696e646578206f7574206f6620626f756e604482015261647360f01b60648201526084016105fa565b82600001828154811061158057634e487b7160e01b600052603260045260246000fd5b9060005260206000200154905092915050565b610733416001610f3c565b60075460ff16156106445760405162461bcd60e51b815260206004820152602a60248201527f45524332305061757361626c653a20746f6b656e207472616e736665722077686044820152691a5b19481c185d5cd95960b21b60648201526084016105fa565b606060006116138360026119f5565b61161e9060026119dd565b67ffffffffffffffff81111561164457634e487b7160e01b600052604160045260246000fd5b6040519080825280601f01601f19166020018201604052801561166e576020820181803683370190505b509050600360fc1b8160008151811061169757634e487b7160e01b600052603260045260246000fd5b60200101906001600160f81b031916908160001a905350600f60fb1b816001815181106116d457634e487b7160e01b600052603260045260246000fd5b60200101906001600160f81b031916908160001a90535060006116f88460026119f5565b6117039060016119dd565b90505b6001811115611797576f181899199a1a9b1b9c1cb0b131b232b360811b85600f166010811061174557634e487b7160e01b600052603260045260246000fd5b1a60f81b82828151811061176957634e487b7160e01b600052603260045260246000fd5b60200101906001600160f81b031916908160001a90535060049490941c9361179081611a5b565b9050611706565b5083156109005760405162461bcd60e51b815260206004820181905260248201527f537472696e67733a20686578206c656e67746820696e73756666696369656e7460448201526064016105fa565b80356001600160a01b03811681146117fd57600080fd5b919050565b600060208284031215611813578081fd5b610900826117e6565b6000806040838503121561182e578081fd5b611837836117e6565b9150611845602084016117e6565b90509250929050565b600080600060608486031215611862578081fd5b61186b846117e6565b9250611879602085016117e6565b9150604084013590509250925092565b6000806040838503121561189b578182fd5b6118a4836117e6565b946020939093013593505050565b6000602082840312156118c3578081fd5b5035919050565b600080604083850312156118dc578182fd5b82359150611845602084016117e6565b600080604083850312156118fe578182fd5b50508035926020909101359150565b60006020828403121561191e578081fd5b81356001600160e01b031981168114610900578182fd5b7f416363657373436f6e74726f6c3a206163636f756e742000000000000000000081526000835161196d816017850160208801611a2b565b7001034b99036b4b9b9b4b733903937b6329607d1b601791840191820152835161199e816028840160208801611a2b565b01602801949350505050565b60208152600082518060208401526119c9816040850160208701611a2b565b601f01601f19169190910160400192915050565b600082198211156119f0576119f0611aad565b500190565b6000816000190483118215151615611a0f57611a0f611aad565b500290565b600082821015611a2657611a26611aad565b500390565b60005b83811015611a46578181015183820152602001611a2e565b83811115611a55576000848401525b50505050565b600081611a6a57611a6a611aad565b506000190190565b600181811c90821680611a8657607f821691505b60208210811415611aa757634e487b7160e01b600052602260045260246000fd5b50919050565b634e487b7160e01b600052601160045260246000fdfea2646970667358221220fdb8d01331159e00fc84038a57577fdb93641fb63cbbb2ff37637befb2a5be8064736f6c63430008040033",
    "sourcePath": "c:/Users/tubed/git/shitcoin/contracts/ShitCoin.sol",
    "compiler": {
        "name": "solc",
        "version": "0.8.4+commit.c7e474f2"
    },
    "functionHashes": {
        "BURNER_ROLE()": "282c51f3",
        "DEFAULT_ADMIN_ROLE()": "a217fddf",
        "MINTER_ROLE()": "d5391393",
        "PAUSER_ROLE()": "e63ab1e9",
        "allowance(address,address)": "dd62ed3e",
        "approve(address,uint256)": "095ea7b3",
        "balanceOf(address)": "70a08231",
        "burn(address,uint256)": "9dc29fac",
        "burn(uint256)": "42966c68",
        "burnFrom(address,uint256)": "79cc6790",
        "decimals()": "313ce567",
        "decreaseAllowance(address,uint256)": "a457c2d7",
        "getRoleAdmin(bytes32)": "248a9ca3",
        "getRoleMember(bytes32,uint256)": "9010d07c",
        "getRoleMemberCount(bytes32)": "ca15c873",
        "grantRole(bytes32,address)": "2f2ff15d",
        "hasRole(bytes32,address)": "91d14854",
        "increaseAllowance(address,uint256)": "39509351",
        "mint(address,uint256)": "40c10f19",
        "name()": "06fdde03",
        "pause()": "8456cb59",
        "paused()": "5c975abb",
        "renounceRole(bytes32,address)": "36568abe",
        "revokeRole(bytes32,address)": "d547741f",
        "supportsInterface(bytes4)": "01ffc9a7",
        "symbol()": "95d89b41",
        "totalSupply()": "18160ddd",
        "transfer(address,uint256)": "a9059cbb",
        "transferFrom(address,address,uint256)": "23b872dd",
        "unpause()": "3f4ba83a"
    },
    "gasEstimates": {
        "creation": {
            "codeDepositCost": "1381000",
            "executionCost": "infinite",
            "totalCost": "infinite"
        },
        "external": {
            "BURNER_ROLE()": "307",
            "DEFAULT_ADMIN_ROLE()": "240",
            "MINTER_ROLE()": "239",
            "PAUSER_ROLE()": "305",
            "allowance(address,address)": "infinite",
            "approve(address,uint256)": "22577",
            "balanceOf(address)": "1283",
            "burn(address,uint256)": "infinite",
            "burn(uint256)": "infinite",
            "burnFrom(address,uint256)": "infinite",
            "decimals()": "245",
            "decreaseAllowance(address,uint256)": "23603",
            "getRoleAdmin(bytes32)": "1237",
            "getRoleMember(bytes32,uint256)": "infinite",
            "getRoleMemberCount(bytes32)": "infinite",
            "grantRole(bytes32,address)": "infinite",
            "hasRole(bytes32,address)": "1418",
            "increaseAllowance(address,uint256)": "23636",
            "mint(address,uint256)": "infinite",
            "name()": "infinite",
            "pause()": "24014",
            "paused()": "1104",
            "renounceRole(bytes32,address)": "infinite",
            "revokeRole(bytes32,address)": "infinite",
            "supportsInterface(bytes4)": "infinite",
            "symbol()": "infinite",
            "totalSupply()": "1027",
            "transfer(address,uint256)": "infinite",
            "transferFrom(address,address,uint256)": "infinite",
            "unpause()": "23946"
        },
        "internal": {
            "_beforeTokenTransfer(address,address,uint256)": "infinite",
            "_mintMinerReward()": "infinite"
        }
    }
}